:020000040800F2
:100000000050002031200008451C00084D1C00084D
:10001000551C00085D1C0008651C0008000000005D
:100020000000000000000000000000006D1C00083F
:10003000791C000800000000851C0008911C0008C5
:10004000792000087920000879200008792000082C
:10005000792000087920000879200008792000081C
:10006000792000087920000879200008792000080C
:1000700079200008792000087920000879200008FC
:1000800079200008792000087920000879200008EC
:1000900079200008792000087920000879200008DC
:1000A00079200008792000087920000879200008CC
:1000B0009D1C00087920000879200008792000089C
:1000C00079200008792000087920000879200008AC
:1000D00079200008B11C0008792000087920000868
:1000E000792000087920000879200008000000002D
:1000F0000000000000000000000000000000000000
:0C01000000000000000000005FF808F1A3
:1001100010B5054C237833B9044B13B10448AFF341
:1001200000800123237010BD140200200000000095
:10013000EC94000808B5034B1BB103490348AFF327
:10014000008008BD0000000018020020EC940008A8
:10015000034613F8012B002AFBD1181A0138704707
:100160004FF0FF0C1CEAD0521EBF1CEAD15392EA9A
:100170000C0F93EA0C0F6FD01A4480EA010C400276
:1001800018BF5FEA41211ED04FF0006343EA5010D0
:1001900043EA5111A0FB01310CF00040B1F5000F12
:1001A0003EBF490041EAD3715B0040EA010062F1C1
:1001B0007F02FD2A1DD8B3F1004F40EBC25008BFAB
:1001C00020F00100704790F0000F0CF0004C08BFC9
:1001D00049024CEA502040EA51207F3AC2BFD2F196
:1001E000FF0340EAC250704740F400004FF00003A4
:1001F000013A5DDC12F1190FDCBF00F000407047DE
:10020000C2F10002410021FA02F1C2F1200200FA1B
:1002100002FC5FEA310040F1000053EA4C0308BFE2
:1002200020EADC70704792F0000F00F0004C02BF33
:10023000400010F4000F013AF9D040EA0C0093F0AE
:10024000000F01F0004C02BF490011F4000F013B08
:10025000F9D041EA0C018FE70CEAD15392EA0C0F76
:1002600018BF93EA0C0F0AD030F0004C18BF31F0E1
:10027000004CD8D180EA010000F00040704790F0B7
:10028000000F17BF90F0004F084691F0000F91F05B
:10029000004F14D092EA0C0F01D142020FD193EA21
:1002A0000C0F03D14B0218BF084608D180EA0100A9
:1002B00000F0004040F0FE4040F40000704740F085
:1002C000FE4040F44000704781F0004102E000BF72
:1002D00083F0004330B54FEA41044FEA430594EA06
:1002E000050F08BF90EA020F1FBF54EA000C55EA41
:1002F000020C7FEA645C7FEA655C00F0E2804FEA12
:100300005454D4EB5555B8BF6D420CDD2C4480EAF3
:10031000020281EA030382EA000083EA010180EA23
:10032000020281EA0303362D88BF30BD11F0004F71
:100330004FEA01314FF4801C4CEA113102D04042A7
:1003400061EB410113F0004F4FEA03334CEA1333E2
:1003500002D0524263EB430394EA050F00F0A780FA
:10036000A4F10104D5F1200E0DDB02FA0EFC22FAF5
:1003700005F2801841F1000103FA0EF2801843FAE9
:1003800005F359410EE0A5F120050EF1200E012ADA
:1003900003FA0EFC28BF4CF0020C43FA05F3C01818
:1003A00051EBE37101F0004507D54FF0000EDCF191
:1003B000000C7EEB00006EEB0101B1F5801F1BD33A
:1003C000B1F5001F0CD349085FEA30004FEA3C0C3E
:1003D00004F101044FEA445212F5800F80F09A8034
:1003E000BCF1004F08BF5FEA500C50F1000041EB38
:1003F000045141EA050130BD5FEA4C0C404141EB3C
:100400000101013C28BFB1F5801FE9D291F0000F36
:1004100004BF01460020B1FA81F308BF2033A3F1E5
:100420000B03B3F120020CDA0C3208DD02F1140CDC
:10043000C2F10C0201FA0CF021FA02F10CE002F117
:100440001402D8BFC2F1200C01FA02F120FA0CFC10
:10045000DCBF41EA0C019040E41AA2BF01EB045159
:10046000294330BD6FEA04041F3C1CDA0C340EDC57
:1004700004F11404C4F1200220FA04F001FA02F39A
:1004800040EA030021FA04F345EA030130BDC4F158
:100490000C04C4F1200220FA02F001FA04F340EA4D
:1004A0000300294630BD21FA04F0294630BD94F0FE
:1004B000000F83F4801306BF81F480110134013DE5
:1004C0004EE77FEA645C18BF7FEA655C29D094EA56
:1004D000050F08BF90EA020F05D054EA000C04BFD4
:1004E0001946104630BD91EA030F1EBF00210020BF
:1004F00030BD5FEA545C05D14000494128BF41F05E
:10050000004130BD14F580043CBF01F5801130BDC1
:1005100001F0004545F0FE4141F470014FF000004C
:1005200030BD7FEA645C1ABF194610467FEA655CFD
:100530001CBF0B46024650EA013406BF52EA03359F
:1005400091EA030F41F4002130BD00BF90F0000F8D
:1005500004BF0021704730B54FF4806404F13204C9
:100560004FF000054FF0000150E700BF90F0000F82
:1005700004BF0021704730B54FF4806404F13204A9
:1005800010F0004548BF40424FF000013EE700BF79
:1005900042004FEAE2014FEA31014FEA02701FBF09
:1005A00012F07F4393F07F4F81F06051704732F03B
:1005B0007F4208BF704793F07F4F04BF41F4002192
:1005C000704730B54FF4607401F0004521F00041F0
:1005D0001CE700BF50EA010208BF704730B54FF07A
:1005E00000050AE050EA010208BF704730B511F07B
:1005F000004502D5404261EB41014FF4806404F1B3
:1006000032045FEA915C3FF4D8AE4FF003025FEA38
:10061000DC0C18BF03325FEADC0C18BF033202EBBC
:10062000DC02C2F1200300FA03FC20FA02F001FA16
:1006300003FE40EA0E0021FA02F11444BDE600BFB9
:1006400070B54FF0FF0C4CF4E06C1CEA11541DBF68
:100650001CEA135594EA0C0F95EA0C0F00F0DEF833
:100660002C4481EA030621EA4C5123EA4C5350EA18
:10067000013518BF52EA033541F4801143F4801369
:1006800038D0A0FB02CE4FF00005E1FB02E506F0FA
:100690000042E0FB03E54FF00006E1FB03569CF04F
:1006A000000F18BF4EF0010EA4F1FF04B6F5007F55
:1006B00064F5407404D25FEA4E0E6D4146EB0606C7
:1006C00042EAC62141EA55514FEAC52040EA5E5050
:1006D0004FEACE2EB4F1FD0C88BFBCF5E06F1ED8FA
:1006E000BEF1004F08BF5FEA500E50F1000041EB31
:1006F000045170BD06F0004646EA010140EA0200DE
:1007000081EA0301B4EB5C04C2BFD4EB0C0541EAFF
:10071000045170BD41F480114FF0000E013C00F314
:10072000AB8014F1360FDEBF002001F0004170BD38
:10073000C4F10004203C35DA0C341BDC04F1140451
:10074000C4F1200500FA05F320FA04F001FA05F2DD
:1007500040EA020001F0004221F0004110EBD370AA
:1007600021FA04F642EB06015EEA430E08BF20EAD6
:10077000D37070BDC4F10C04C4F1200500FA04F379
:1007800020FA05F001FA04F240EA020001F000410B
:1007900010EBD37041F100015EEA430E08BF20EA7E
:1007A000D37070BDC4F1200500FA05F24EEA020EC6
:1007B00020FA04F301FA05F243EA020321FA04F0F5
:1007C00001F0004121FA04F220EA020000EBD370AC
:1007D0005EEA430E08BF20EAD37070BD94F0000FAC
:1007E0000FD101F00046400041EB010111F4801FE0
:1007F00008BF013CF7D041EA060195F0000F18BF91
:10080000704703F00046520043EB030313F4801FCC
:1008100008BF013DF7D043EA0603704794EA0C0F86
:100820000CEA135518BF95EA0C0F0CD050EA41069C
:1008300018BF52EA4306D1D181EA030101F0004119
:100840004FF0000070BD50EA410606BF1046194641
:1008500052EA430619D094EA0C0F02D150EA01364D
:1008600013D195EA0C0F05D152EA03361CBF10468E
:1008700019460AD181EA030101F0004141F0FE412D
:1008800041F470014FF0000070BD41F0FE4141F4B1
:10089000780170BD70B54FF0FF0C4CF4E06C1CEAB1
:1008A00011541DBF1CEA135594EA0C0F95EA0C0F66
:1008B00000F0A7F8A4EB050481EA030E52EA033521
:1008C0004FEA013100F088804FEA03334FF0805542
:1008D00045EA131343EA12634FEA022245EA11156F
:1008E00045EA10654FEA00260EF000419D4208BF20
:1008F000964244F1FD0404F5407402D25B084FEACD
:100900003202B61A65EB03055B084FEA32024FF478
:1009100080104FF4002CB6EB020E75EB030E22BFD5
:10092000B61A754640EA0C005B084FEA3202B6EB95
:10093000020E75EB030E22BFB61A754640EA5C0044
:100940005B084FEA3202B6EB020E75EB030E22BFD4
:10095000B61A754640EA9C005B084FEA3202B6EBD5
:10096000020E75EB030E22BFB61A754640EADC0094
:1009700055EA060E18D04FEA051545EA16754FEAF6
:1009800006164FEAC30343EA52734FEAC2025FEA14
:100990001C1CC0D111F4801F0BD141EA00014FF0A3
:1009A00000004FF0004CB6E711F4801F04BF014374
:1009B0000020B4F1FD0C88BFBCF5E06F3FF6AFAE90
:1009C000B5EB030C04BFB6EB020C5FEA500C50F120
:1009D000000041EB045170BD0EF0004E4EEA1131A3
:1009E00014EB5C04C2BFD4EB0C0541EA045170BDAA
:1009F00041F480114FF0000E013C90E645EA060EEE
:100A00008DE60CEA135594EA0C0F08BF95EA0C0F1B
:100A10003FF43BAF94EA0C0F0AD150EA01347FF463
:100A200034AF95EA0C0F7FF425AF104619462CE73A
:100A300095EA0C0F06D152EA03353FF4FDAE10469D
:100A4000194622E750EA410618BF52EA43067FF4EE
:100A5000C5AE50EA41047FF40DAF52EA43057FF47E
:100A6000EBAE12E74FF0FF3C06E000BF4FF0010C89
:100A700002E000BF4FF0010C4DF804CD4FEA410CED
:100A80007FEA6C5C4FEA430C18BF7FEA6C5C1BD0BA
:100A900001B050EA410C0CBF52EA430C91EA030F3B
:100AA00002BF90EA020F0020704710F1000F91EA98
:100AB000030F58BF994208BF90422CBFD8176FEA66
:100AC000E37040F0010070474FEA410C7FEA6C5C34
:100AD00002D150EA013C07D14FEA430C7FEA6C5C3B
:100AE000D6D152EA033CD3D05DF8040B704700BF67
:100AF0008446104662468C461946634600E000BFB5
:100B000001B5FFF7B7FF002848BF10F1000F01BD86
:100B10004DF808EDFFF7F4FF0CBF012000205DF851
:100B200008FB00BF4DF808EDFFF7EAFF34BF0120D6
:100B300000205DF808FB00BF4DF808EDFFF7E0FF6F
:100B400094BF012000205DF808FB00BF4DF808EDC0
:100B5000FFF7CEFF94BF012000205DF808FB00BF27
:100B60004DF808EDFFF7C4FF34BF012000205DF809
:100B700008FB00BF4A0011D212F5001211D20DD5A8
:100B80006FF47873B3EB62520ED44FEAC12343F093
:100B9000004343EA505323FA02F070474FF000003D
:100BA000704750EA013002D14FF0FF3070474FF0EC
:100BB000000070474FEA4102B2F1E04324BFB3F5B1
:100BC000001CDCF1FE5C0DD901F0004C4FEAC002C4
:100BD0004CEA5070B2F1004F40EB830008BF20F0A8
:100BE0000100704711F0804F21D113F13872BCBF62
:100BF00001F00040704741F480114FEA5252C2F1B7
:100C00001802C2F1200C10FA0CF320FA02F018BFFF
:100C100040F001004FEAC1234FEAD32303FA0CFC52
:100C200040EA0C0023FA02F34FEA4303CCE77FEAE1
:100C3000625307D150EA01331EBF4FF0FE4040F42B
:100C40004000704701F0004040F0FE4040F40000DA
:100C5000704700BF80F0004002E000BF81F000411B
:100C600042001FBF5FEA410392EA030F7FEA226C52
:100C70007FEA236C6AD04FEA1262D2EB1363C1BFE2
:100C8000D218414048404140B8BF5B42192B88BF51
:100C9000704710F0004F40F4000020F07F4018BF74
:100CA000404211F0004F41F4000121F07F4118BF94
:100CB000494292EA030F3FD0A2F1010241FA03FC3C
:100CC00010EB0C00C3F1200301FA03F100F0004324
:100CD00002D5494260EB4000B0F5000F13D3B0F1EC
:100CE000807F06D340084FEA310102F10102FE2A5B
:100CF00051D2B1F1004F40EBC25008BF20F00100CB
:100D000040EA03007047490040EB0000013A28BF69
:100D1000B0F5000FEDD2B0FA80FCACF1080CB2EBEC
:100D20000C0200FA0CF0AABF00EBC250524218436A
:100D3000BCBFD0401843704792F0000F81F400010F
:100D400006BF80F400000132013BB5E74FEA4103E2
:100D50007FEA226C18BF7FEA236C21D092EA030F4E
:100D600004D092F0000F08BF0846704790EA010FC8
:100D70001CBF0020704712F07F4F04D1400028BFF5
:100D800040F00040704712F100723CBF00F50000D7
:100D9000704700F0004343F0FE4040F4000070470D
:100DA0007FEA226216BF08467FEA236301464202B9
:100DB00006BF5FEA412390EA010F40F480007047CC
:100DC0004FF0000304E000BF10F0004348BF404272
:100DD0005FEA000C08BF704743F0964301464FF0AE
:100DE00000001CE050EA010208BF70474FF000030A
:100DF0000AE000BF50EA010208BF704711F000434B
:100E000002D5404261EB41015FEA010C02BF84461A
:100E10000146002043F0B64308BFA3F18053A3F579
:100E20000003BCFA8CF2083AA3EBC25310DB01FAC0
:100E300002FC634400FA02FCC2F12002BCF1004F44
:100E400020FA02F243EB020008BF20F001007047D5
:100E500002F1200201FA02FCC2F1200250EA4C0029
:100E600021FA02F243EB020008BF20EADC7070476F
:100E70004FF0FF3C06E000BF4FF0010C02E000BF66
:100E80004FF0010C4DF804CD4FEA40024FEA410308
:100E90007FEA226C18BF7FEA236C11D001B052EABE
:100EA000530C18BF90EA010F58BFB2EB030088BF84
:100EB000C81738BF6FEAE17018BF40F001007047F3
:100EC0007FEA226C02D15FEA402C05D17FEA236CD5
:100ED000E4D15FEA412CE1D05DF8040B704700BF1C
:100EE000844608466146FFE70FB5FFF7C9FF0028B3
:100EF00048BF10F1000F0FBD4DF808EDFFF7F4FFEC
:100F00000CBF012000205DF808FB00BF4DF808ED84
:100F1000FFF7EAFF34BF012000205DF808FB00BFA7
:100F20004DF808EDFFF7E0FF94BF012000205DF8C9
:100F300008FB00BF4DF808EDFFF7D2FF94BF01207A
:100F400000205DF808FB00BF4DF808EDFFF7C8FF73
:100F500034BF012000205DF808FB00BF4FEA4002CB
:100F6000B2F1FE4F0FD34FF09E03B3EB12620DD9D7
:100F70004FEA002343F0004310F0004F23FA02F041
:100F800018BF404270474FF00000704712F1610FE8
:100F900001D1420205D110F0004008BF6FF00040BF
:100FA00070474FF00000704738B500220023044618
:100FB0000D46FFF7B7FD28B920462946BDE8384061
:100FC00000F00AB8204605F1004100F005F8404263
:100FD00061EB410138BD00BFD0B500220B4B064686
:100FE0000F46FFF72DFBFFF7C5FD0446FFF7AEFAEE
:100FF0000022074BFFF724FB02460B4630463946DA
:10100000FFF766F9FFF7B6FD2146D0BD0000F03DC1
:101010000000F04180B584B000AF3B1D00221A6093
:101020005A609A60184B194A1A60174B00229A604E
:10103000154B01221A73144B00221A75124B4FF4F0
:101040006022DA61104B00225A600F4B01221A61B4
:101050000D4801F099F80346002B01D000F0BAFDCD
:1010600008237B600123BB600023FB603B1D194606
:10107000054801F021FB0346002B01D000F0AAFD3A
:1010800000BF1037BD4680BD300200200024014063
:1010900080B588B000AF786007F1100300221A60B5
:1010A0005A609A60DA607B681B68144A934221D1C7
:1010B000134B9B69124A43F400739361104B9B6975
:1010C00003F40073FB60FB680D4B9B690C4A43F013
:1010D000080393610A4B9B6903F00803BB60BB687C
:1010E00001233B6103237B6107F110031946054887
:1010F00001F0E4FE00BF2037BD4680BD0024014062
:1011000000100240000C014080B588B000AF07F12C
:10111000100300221A605A609A60DA603E4B9B69A5
:101120003D4A43F0100393613B4B9B6903F010036E
:10113000FB60FB68384B9B69374A43F0200393619F
:10114000354B9B6903F02003BB60BB68324B9B6946
:10115000314A43F0040393612F4B9B6903F004036E
:101160007B607B682C4B9B692B4A43F0080393619F
:10117000294B9B6903F008033B603B6800224FF456
:101180000051264802F035F80022FC21244802F0E4
:1011900030F800224FF47241224802F02AF84FF44E
:1011A00000533B6101237B610023BB610223FB6190
:1011B00007F110031946194801F080FEFC233B613A
:1011C00001237B610023BB610223FB6107F1100354
:1011D0001946134801F072FE4FF440633B6100234F
:1011E0007B610023BB6107F1100319460D4801F034
:1011F00065FE4FF472433B6101237B610023BB61B9
:101200000223FB6107F110031946064801F056FE60
:1012100000BF2037BD4680BD0010024000100140D5
:1012200000080140000C014080B5A6B000AF0023CB
:10123000A7F86A300023A7F89630002387F86930B2
:1012400000F01CFF00F060FCFFF75EFFFFF7E2FE1E
:1012500000F000FE00F06EFE04F0C8FC0E2100203D
:1012600004F0D6FD002004F009FA002004F086F90D
:1012700000237B664FF000033B664FF00003FB65E5
:101280000023C7F890300023BB650123C7F88C30DA
:101290004FF080437B654FF07E533B650023C7F8DA
:1012A0008830C34B31225A70C14B31229A70C04BE7
:1012B0003222DA70BE4B2E221A71BD4B33225A7184
:1012C000BB4B31229A71BA4B2E22DA71B84B3422C1
:1012D0001A72B84801F084FBB64801F02DF84FF0BF
:1012E000FF31B44801F0D6F8B348FEF731FF0346AA
:1012F0009BB21A46B049B14803F020FA4FF4FA7392
:101300000A22AB49AD4803F082F9A94B5B78312B37
:101310000CBF01230023DBB2C7F88C30A44B9B78B1
:10132000312B0CBF01230023DBB2C7F890304FF400
:101330000061A34801F046FF0346002B03D10123BF
:10134000C7F88C3002E00023C7F88C30994801F0D0
:10135000A7F903467B66786EFFF708F990A3D3E9F7
:101360000023FFF797FA02460B46104619468EA354
:10137000D3E90023FFF764F902460B4610461946ED
:10138000FFF718FC03463B66786EFFF7EFF884A37F
:10139000D3E90023FFF77EFA02460B4610461946B2
:1013A00081A3D3E90023FFF74BF902460B46104611
:1013B0001946FFF7FFFB0346FB654FF48061804849
:1013C00001F000FF0346002B03D10123C7F8903042
:1013D00002E00023C7F89030754BDB7887F8403087
:1013E000734B1B7987F84130714B5B7987F842303A
:1013F0006F4B9B7987F83C306D4BDB7987F83D303C
:101400006B4B1B7A87F83E3007F14003184605F016
:10141000BBF802460B4610461946FFF7CBFB0346C6
:101420007B6507F13C03184605F0AEF802460B4613
:1014300010461946FFF7BEFB03463B65D7F88C30D4
:10144000002B00F01F835A4BDB7887F830302E23B7
:1014500087F83130564B5B7987F83230002387F8B4
:101460003330534B9B7987F824302E2387F825306F
:101470004F4B1B7A87F82630002387F82730072246
:101480000221002004F0BAF84E49002004F068FB65
:101490000C220221002004F0B1F84B49002004F096
:1014A0005FFB09220221002004F0A8F807F13003B5
:1014B0001946002004F054FB0E220221002004F003
:1014C0009DF807F124031946002004F049FBD7F8E2
:1014D0008C30002B09D00F220121002004F08EF85F
:1014E0003A49002004F03CFB08E00F2201210020D3
:1014F00004F084F83649002004F032FBD7F890302D
:10150000002B09D010220121002004F077F8314986
:10151000002004F025FB08E010220121002004F047
:101520006DF82B49002004F01BFB012000F008FEA1
:1015300001220121002004F061F82749002004F075
:101540000FFB386EFFF70AFD0346C7F88430D7F863
:101550008400FFF739FC03461946386EFFF77EFB1F
:1015600003461E491846FEF7FBFD03461846FFF7E3
:10157000F5FC0346FB640023C7F88030D7F88430BD
:10158000002B50D1D7F880305A1CC7F880209833F0
:101590003B44302203F8802C79E000BFAFF3008099
:1015A0000000000000FEAF406666666666660A40A0
:1015B00060020020300200206C020020C4020020E3
:1015C000000C0140089500080C95000810950008D3
:1015D00014950008189500081C9500080000C842E2
:1015E000D7F88420B74B83FB02139910D317C91A7D
:1015F0000B469B000B445B00D11ACAB2D7F880306F
:10160000591CC7F880103032D2B298333B4403F8EB
:10161000802CD7F88430AB4A82FB03129210DB1780
:10162000D31AC7F88430D7F88430002BD8DC0023D5
:10163000FB6723E007F11802FB6F13441B7887F860
:101640004B30D7F88020FB6FD31A013B98333B44D3
:1016500013F8801C07F11802FB6F13440A461A7036
:10166000D7F88020FB6FD31A013B98333B4497F89F
:101670004B2003F8802CFB6F0133FB67D7F88030D9
:10168000DA0F13445B101A46FB6F9342D2DBD7F894
:1016900080305A1CC7F8802098333B442E2203F830
:1016A000802CFB6C874A82FB03129210DB17D31A43
:1016B000DAB2D7F88030591CC7F880103032D2B275
:1016C00098333B4403F8802CFA6C7E4B83FB021367
:1016D0009910D317C91A0B469B000B445B00D11A13
:1016E000CAB2D7F88030591CC7F880103032D2B255
:1016F00098333B4403F8802CD7F880305A1CC7F845
:10170000802098333B44562203F8802C07F11802BE
:10171000D7F88030134400221A70032201210020E0
:1017200003F06CFF07F118031946002004F018FAC3
:1017300001220221002003F061FF6349002004F030
:101740000FFA7B6EB42202FB03F3604A82FB0312A2
:101750001A44D212DB17D31A7B647B6CBB6700235D
:101760007B67BB6F002B26D17B6F5A1C7A6798333F
:101770003B44302203F88C2C68E0BA6F514B83FB5A
:1017800002139910D317C91A0B469B000B445B0038
:10179000D11ACAB27B6F591C79673032D2B29833F2
:1017A0003B4403F88C2CBB6F464A82FB0312921019
:1017B000DB17D31ABB67BB6F002BDEDC00233B6754
:1017C00021E007F10C023B6F13441B7887F843308C
:1017D0007A6F3B6FD31A013B98333B4413F88C1C50
:1017E00007F10C023B6F13440A461A707A6F3B6F85
:1017F000D31A013B98333B4497F8432003F88C2CD1
:101800003B6F01333B677B6FDA0F13445B101A4663
:101810003B6F9342D5DB19E07B6FFB660EE0FB6EFE
:10182000013B98333B4413F88C1C07F10C02FB6E10
:1018300013440A461A70FB6E013BFB66FB6E002BDD
:10184000EDDC30233B737B6F01337B677B6F022BB7
:10185000E2DD07F10C037A6C1D49184605F05EFDC8
:1018600003220221002003F0C9FE07F10C031946F0
:10187000002004F075F906220221002003F0BEFECC
:101880001449002004F06CF97B6EA7F86A30B7F8B1
:101890006A20B7F896301E339A421DDD002387F880
:1018A0006930B7F86A20B7F89630D31A002B00DAFF
:1018B00003339B10194697F869301A46002004F04C
:1018C00061FD23E067666666209500088100088058
:1018D000249500082C950008B7F86A20B7F89630D0
:1018E0001E3B9A4212DA012387F86930B7F8962036
:1018F000B7F86A30D31A002B00DA03339B1019466D
:1019000097F869301A46002004F03CFDB7F86A30B9
:10191000A7F896303B467A6E7349184605F0FEFCF0
:101920003B461846FEF714FC03469AB23946642338
:101930006E4802F0E1FD642000F002FCD7F8903020
:10194000002B00F0988009220121002003F056FEB0
:101950006749002004F004F9796D386EFFF7F4FA56
:101960000346002B0CD009220121002003F046FE83
:101970006049002004F0F4F8322000F0E1FB1CE0A4
:10198000396D386EFFF7C2FA0346002B0CD00922DE
:101990000121002003F032FE5749002004F0E0F856
:1019A000322000F0CDFB08E009220121002003F0E5
:1019B00025FE4F49002004F0D3F8796DF86DFFF74C
:1019C000C3FA0346002B06D1396DF86DFFF79EFA76
:1019D0000346002B48D000224FF40051474801F045
:1019E00008FC052000F0ACFB01224FF400514348F5
:1019F00001F0FFFB052000F0A3FB00224FF4005193
:101A00003E4801F0F6FB052000F09AFB01224FF45E
:101A100000513A4801F0EDFB052000F091FB002257
:101A20004FF40051354801F0E4FB052000F088FB3D
:101A300001224FF40051314801F0DBFB052000F09A
:101A40007FFB00224FF400512C4801F0D2FB05200F
:101A500000F076FB01224FF40051284801F0C9FB49
:101A6000052000F06DFB1CE001224FF400512348DB
:101A700001F0BFFB15E001224FF400511F4801F0B7
:101A8000B8FB0EE001220121002003F0B7FD1C4944
:101A9000002004F065F801224FF40051174801F0CE
:101AA000A8FB08220121002003F0A8FD1549002011
:101AB00004F056F80E220121002003F09FFD114989
:101AC000002004F04DF8D7F88830092B06DD0020FF
:101AD00003F054FD0023C7F888300FE4D7F88830AE
:101AE0000133C7F8883009E430950008C4020020AB
:101AF00038950008409500084895000800100140FE
:101B0000509500081495000880B594B000AF07F117
:101B1000280328220021184605F063FC07F114036E
:101B200000221A605A609A60DA601A613B1D002236
:101B30001A605A609A60DA600123BB624FF4803306
:101B4000FB6200233B630123BB6302237B644FF4EE
:101B50008033BB644FF4E013FB6407F1280318469D
:101B600001F060FB0346002B01D000F033F80F2397
:101B70007B610223BB610023FB614FF480633B6206
:101B800000237B6207F114030221184601F0CCFD0B
:101B90000346002B01D000F01DF802237B604FF4B8
:101BA0000043FB603B1D184601F04CFF0346002B31
:101BB00001D000F00FF800BF5037BD4680BD80B5A2
:101BC00082B000AF7860786804F03AFC00BF083754
:101BD000BD4680BD80B400AF72B600BF00BFFDE758
:101BE00080B485B000AF154B9B69144A43F00103E4
:101BF0009361124B9B6903F00103BB60BB680F4B01
:101C0000DB690E4A43F08053D3610C4BDB6903F070
:101C100080537B607B680A4B5B68FB60FB6823F04A
:101C2000E063FB60FB6843F00073FB60044AFB6801
:101C3000536000BF1437BD4680BC7047001002409F
:101C40000000014080B400AF00BFFDE780B400AFEA
:101C500000BFFDE780B400AF00BFFDE780B400AF78
:101C600000BFFDE780B400AF00BFFDE780B400AF68
:101C700000BFBD4680BC704780B400AF00BFBD460A
:101C800080BC704780B400AF00BFBD4680BC7047C9
:101C900080B500AF00F038FA00BF80BD80B500AF5E
:101CA000024802F08AF800BF80BD00BF7C0200201D
:101CB00080B500AF024802F067FD00BF80BD00BFE5
:101CC000C402002080B400AF01231846BD4680BC8A
:101CD000704780B582B000AF7860396005F0E2FBF4
:101CE000034616221A604FF0FF3318460837BD46E8
:101CF00080BD80B582B000AF78604FF0FF3178686A
:101D0000FFF7E7FF00BFFDE780B586B000AFF860E2
:101D1000B9607A6000237B610AE0AFF3008001467E
:101D2000BB685A1CBA60CAB21A707B6901337B6106
:101D30007A697B689A42F0DB7B6818461837BD46A3
:101D400080BD80B586B000AFF860B9607A600023CE
:101D50007B6109E0BB685A1CBA601B781846AFF378
:101D600000807B6901337B617A697B689A42F1DB91
:101D70007B6818461837BD4680BD80B483B000AF7D
:101D800078604FF0FF3318460C37BD4680BC704773
:101D900080B483B000AF786039603B684FF4005284
:101DA0005A60002318460C37BD4680BC704780B48B
:101DB00083B000AF7860012318460C37BD4680BC65
:101DC000704780B485B000AFF860B9607A600023D6
:101DD00018461437BD4680BC7047000080B586B0F9
:101DE00000AF7860144A154BD31A7B617B693B6165
:101DF000134B1B68002B02D1114B124A1A60104B77
:101E00001A687B6813443A699A4207D205F04AFB84
:101E100003460C221A604FF0FF3309E0084B1B68A1
:101E2000FB60074B1A687B681344054A1360FB6824
:101E300018461837BD4680BD005000200004000041
:101E4000780200207004002080B400AF00BFBD46BF
:101E500080BC704780B586B000AF07F10803002250
:101E60001A605A609A60DA603B4600221A605A6033
:101E70001D4B4FF080421A601B4B47225A601A4B91
:101E800000229A60184B4FF6FF72DA60164B002260
:101E90001A61154B00229A61134801F03FFF034677
:101EA000002B01D0FFF796FE4FF48053BB6007F183
:101EB000080319460C4802F070F80346002B01D0C5
:101EC000FFF788FE00233B6000237B603B461946FA
:101ED000054802F051FA0346002B01D0FFF77AFEC5
:101EE00000BF1837BD4680BD7C02002080B584B09D
:101EF00000AF78607B681B68B3F1804F13D10C4B47
:101F0000DB690B4A43F00103D361094BDB6903F042
:101F10000103FB60FB68002200211C2000F0E5FEAD
:101F20001C2000F0FEFE00BF1037BD4680BD00BF84
:101F30000010024080B500AF114B124A1A60104BDE
:101F40004FF4E1325A600E4B00229A600C4B002293
:101F5000DA600B4B00221A61094B0C225A61084BC4
:101F600000229A61064B0022DA61054802F074FAF9
:101F70000346002B01D0FFF72DFE00BF80BD00BF40
:101F8000C40200200038014080B588B000AF7860FE
:101F900007F1100300221A605A609A60DA607B68C9
:101FA0001B68204A934239D11F4B9B691E4A43F458
:101FB000804393611C4B9B6903F48043FB60FB6887
:101FC000194B9B69184A43F004039361164B9B69B4
:101FD00003F00403BB60BB684FF400733B61022352
:101FE0007B610323FB6107F1100319460F4800F0E2
:101FF00065FF4FF480633B6100237B610023BB617D
:1020000007F110031946094800F058FF002200218B
:10201000252000F06AFE252000F083FE00BF203757
:10202000BD4680BD0038014000100240000801405C
:10203000FFF70AFF0B480C490C4A002302E0D45872
:10204000C4500433C4188C42F9D3094A094C002304
:1020500001E013600432A242FBD305F029FAFFF736
:10206000E3F870470000002014020020B89900082F
:102070001402002070040020FEE7000080B500AFCD
:10208000084B1B68074A43F010031360032000F05D
:1020900021FE0F2000F008F8FFF7A2FD00231846EC
:1020A00080BD00BF0020024080B582B000AF7860E4
:1020B000124B1A68124B1B7819464FF47A73B3FB14
:1020C000F1F3B2FBF3F3184600F039FE0346002BA0
:1020D00001D001230EE07B680F2B0AD8002279681B
:1020E0004FF0FF3000F001FE064A7B6813600023CA
:1020F00000E0012318460837BD4680BD00000020DF
:10210000080000200400002080B400AF054B1B78BD
:102110001A46054B1B681344034A136000BFBD46B3
:1021200080BC7047080000200C03002080B400AF82
:10213000024B1B681846BD4680BC70470C0300204C
:1021400080B584B000AF7860FFF7F0FFB8607B68BF
:10215000FB60FB68B3F1FF3F05D00A4B1B781A46C2
:10216000FB681344FB6000BFFFF7E0FF0246BB685B
:10217000D31AFA689A42F7D800BF00BF1037BD469D
:1021800080BD00BF0800002080B586B000AF786039
:102190000023FB7500233B610023BB600023FB6031
:1021A0007B68002B01D10123BEE07B689B68002B7C
:1021B0007B689B6A002B09D17B680022DA627B680E
:1021C000002283F824207868FEF762FF786800F028
:1021D000C5FB0346FB757B689B6A03F01003002B6D
:1021E00040F09980FB7D002B40F095807B689B6AD6
:1021F00023F4885323F0020343F002027B689A62BF
:102200007B685A687B68DB691A437B681B7B5B00D1
:102210001343BA681343BB607B689B68B3F5807F48
:1022200003D07B689B68012B02D14FF4807300E0E0
:1022300000233A6913433B617B681B7D012B19D155
:102240007B681B7B002B09D17B689B69013B5A0390
:102250003B69134343F400633B610BE07B689B6A7B
:1022600043F020027B689A627B68DB6A43F00102DC
:102270007B68DA627B681B685B6823F469417B6872
:102280001B683A690A435A607B681B689A68284B46
:1022900013407A681268B9680B4393607B689B6847
:1022A000B3F5807F03D07B689B68012B04D17B68EA
:1022B0001B69013B1B05FB607B681B68DB6A23F421
:1022C00070017B681B68FA680A43DA627B681B68E6
:1022D0009A68184B1340BA689A420BD17B68002267
:1022E000DA627B689B6A23F0030343F001027B6898
:1022F0009A6218E07B689B6A23F0120343F0100295
:102300007B689A627B68DB6A43F001027B68DA6271
:102310000123FB7507E07B689B6A43F010027B6832
:102320009A620123FB75FB7D18461837BD4680BDB8
:10233000FDF7E1FFFE0E1FFF80B584B000AF7860AF
:102340000023FB737B6893F82430012B01D1022317
:1023500098E07B68012283F82420786800F0A4FAD2
:102360000346FB73FB7B002B40F087807B689B6AF6
:1023700023F4407323F0010343F480727B689A6274
:102380007B681B68414A934205D1414B5B6803F46B
:102390007023002B15D17B689B6A23F480127B6825
:1023A0009A627B681B685B6803F48063002B26D00D
:1023B0007B689B6A23F4405343F480527B689A62A3
:1023C0001DE07B689B6A43F480127B689A627B689D
:1023D0001B682F4A934204D07B681B682B4A9342A8
:1023E0000DD12B4B5B6803F48063002B07D07B6817
:1023F0009B6A23F4405343F480527B689A627B6863
:102400009B6A03F48053002B06D07B68DB6A23F0C1
:1024100006027B68DA6202E07B680022DA627B688F
:10242000002283F824207B681B686FF002021A6088
:102430007B681B689B6803F46023B3F5602F13D19E
:102440007B681B68114A934205D1114B5B6803F40A
:102450007023002B08D17B681B689A687B681B6817
:1024600042F4A0029A600CE07B681B689A687B6863
:102470001B6842F480129A6003E07B68002283F8B4
:102480002420FB7B18461037BD4680BD0028014044
:102490000024014090B587B000AF78603960002318
:1024A0007B610023FB6000233B61FFF73FFE786107
:1024B0007B681B689B6803F48073002B0BD07B68E0
:1024C0009B6A43F020027B689A627B68002283F853
:1024D00024200123D3E07B681B685B6803F48073CE
:1024E000002B31D17B681B68DB6A03F47003002B7F
:1024F0002AD121E03B68B3F1FF3F1DD03B68002BA0
:1025000007D0FFF713FE02467B69D31A3A689A4256
:1025100012D27B681B681B6803F00203002B0BD1EF
:102520007B689B6A43F004027B689A627B680022A6
:1025300083F824200323A2E07B681B681B6803F058
:102540000203002BD6D070E04F4B1C68022001F034
:102550002FFB0346B4FBF3F27B681B6819694B4BF6
:102560000B40002B18D17B681B68D968484B0B4087
:10257000002B11D17B681B681969464B0B40002B5F
:1025800008D17B681B68D968434B0B40002B01D1F5
:10259000142320E029231EE07B681B6819693D4B4A
:1025A0000B40002B06D17B681B68D9683A4B0B4067
:1025B000002B0DD07B681B681969384B0B40002B32
:1025C00008D17B681B68D968344B0B40002B01D1C4
:1025D000542300E0FC2302FB03F33B6121E03B6852
:1025E000B3F1FF3F1AD03B68002B07D0FFF79EFDE9
:1025F00002467B69D31A3A689A420FD2FB683A695D
:102600009A420BD97B689B6A43F004027B689A620A
:102610007B68002283F82420032330E0FB68013329
:10262000FB60FB683A699A42D9D87B681B686FF0F7
:1026300012021A607B689B6A43F400727B689A629C
:102640007B681B689B6803F46023B3F5602F15D18A
:102650007B681B7B002B11D17B689B6A23F4807203
:102660007B689A627B689B6A03F48053002B05D1D8
:102670007B689B6A43F001027B689A6200231846DC
:102680001C37BD4690BD00BF0000002024499224A5
:10269000244992009224491292244900499224002C
:1026A00080B483B000AF78607B681B68DB6C184631
:1026B0000C37BD4680BC704780B485B000AF7860F1
:1026C00039600023FB730023BB607B6893F82430E0
:1026D000012B01D10223DCE07B68012283F8242056
:1026E0003B685B68062B1CD87B681B68596B3B6892
:1026F0005A6813469B001344053B1F2202FA03F35A
:10270000DB4319403B6818683B685A6813469B00D6
:102710001344053B00FA03F27B681B680A435A63C3
:102720003CE03B685B680C2B1CD87B681B68196B12
:102730003B685A6813469B001344233B1F2202FA4E
:1027400003F3DB4319403B6818683B685A6813463B
:102750009B001344233B00FA03F27B681B680A4387
:102760001A631BE07B681B68D96A3B685A6813468A
:102770009B001344413B1F2202FA03F3DB43194041
:102780003B6818683B685A6813469B001344413BFA
:1027900000FA03F27B681B680A43DA623B681B6835
:1027A000092B1CD97B681B68D9683B681A681346DB
:1027B0005B0013441E3B072202FA03F3DB4319407C
:1027C0003B6898683B681A6813465B0013441E3BDD
:1027D00000FA03F27B681B680A43DA6019E07B6841
:1027E0001B6819693B681A6813465B00134407228B
:1027F00002FA03F3DB4319403B6898683B681A68A8
:1028000013465B00134400FA03F27B681B680A431B
:102810001A613B681B68102B03D03B681B68112BA7
:1028200032D17B681B681D4A934225D17B681B68A7
:102830009B6803F40003002B26D17B681B689A6811
:102840007B681B6842F400029A603B681B68102B8F
:102850001AD1134B1B68134AA2FB03239A0C13468D
:102860009B0013445B00BB6002E0BB68013BBB60A4
:10287000BB68002BF9D107E07B689B6A43F020021C
:102880007B689A620123FB737B68002283F8242013
:10289000FB7B18461437BD4680BC704700240140BE
:1028A0000000002083DE1B4380B584B000AF786059
:1028B0000023FB600023BB607B681B689B6803F000
:1028C0000103012B40D07B681B689A687B681B68FA
:1028D00042F001029A601F4B1B681F4AA2FB0323B0
:1028E0009B0CBB6002E0BB68013BBB60BB68002B7C
:1028F000F9D1FFF71BFCF8601FE0FFF717FC024659
:10290000FB68D31A022B18D97B681B689B6803F0FD
:102910000103012B11D07B689B6A43F010027B6896
:102920009A627B68DB6A43F001027B68DA627B684B
:10293000002283F82420012307E07B681B689B6842
:1029400003F00103012BD8D1002318461037BD46F0
:1029500080BD00BF0000002083DE1B4380B584B033
:1029600000AF78600023FB607B681B689B6803F006
:102970000103012B2ED17B681B689A687B681B685A
:1029800022F001029A60FFF7D1FBF8601BE0FFF72D
:10299000CDFB0246FB68D31A022B14D97B681B6857
:1029A0009B6803F00103012B0DD17B689B6A43F008
:1029B00010027B689A627B68DB6A43F001027B68E5
:1029C000DA62012307E07B681B689B6803F0010360
:1029D000012BDCD0002318461037BD4680BD000017
:1029E00090B587B000AF78600023FB750023FB60D3
:1029F0007B6893F82430012B01D1022397E07B6898
:102A0000012283F824207868FFF7A8FF0346FB75AE
:102A10007868FFF749FF0346FB75FB7D002B40F00C
:102A200081807B689B6A23F4885323F0020343F080
:102A300002027B689A62404B1C68022001F0B8F8E1
:102A40000346B4FBF3F35B00FB6002E0FB68013B71
:102A5000FB60FB68002BF9D17B681B689A687B6878
:102A60001B6842F008029A60FFF760FB38611BE0C8
:102A7000FFF75CFB02463B69D31A0A2B14D97B682B
:102A80001B689B6803F00803002B0DD07B689B6AD2
:102A900023F0120343F010027B689A627B680022E5
:102AA00083F82420012342E07B681B689B6803F0C5
:102AB0000803002BDCD17B681B689A687B681B6865
:102AC00042F004029A60FFF731FB38611BE0FFF728
:102AD0002DFB02463B69D31A0A2B14D97B681B686D
:102AE0009B6803F00403002B0DD07B689B6A23F0E6
:102AF000120343F010027B689A627B68002283F81D
:102B00002420012313E07B681B689B6803F0040307
:102B1000002BDCD17B689B6A23F0030343F00102A6
:102B20007B689A627B68002283F82420FB7D18462C
:102B30001C37BD4690BD00BF0000002080B485B0AA
:102B400000AF78607B6803F00703FB600C4BDB6829
:102B5000BB60BA684FF6FF031340BB60FB681A0204
:102B6000BB68134343F0BF6343F40033BB60044AC4
:102B7000BB68D36000BF1437BD4680BC704700BF40
:102B800000ED00E080B400AF044BDB681B0A03F0EB
:102B900007031846BD4680BC704700BF00ED00E04B
:102BA00080B483B000AF0346FB7197F90730002B68
:102BB0000BDBFB7903F01F02064997F907305B092D
:102BC000012000FA02F241F8232000BF0C37BD4675
:102BD00080BC704700E100E080B483B000AF0346E2
:102BE0003960FB7197F90730002B0ADB3B68DAB2DA
:102BF0000C4997F907301201D2B20B4483F8002335
:102C00000AE03B68DAB20849FB7903F00F03043BA2
:102C10001201D2B20B441A7600BF0C37BD4680BCFD
:102C2000704700BF00E100E000ED00E080B489B033
:102C300000AFF860B9607A60FB6803F00703FB61DE
:102C4000FB69C3F10703042B28BF0423BB61FB69A5
:102C50000433062B02D9FB69033B00E000237B61B0
:102C60004FF0FF32BB6902FA03F3DA43BB681A4044
:102C70007B699A404FF0FF317B6901FA03F3D94336
:102C80007B680B40134318462437BD4680BC704711
:102C900080B582B000AF78607B68013BB3F1807F84
:102CA00001D301230FE00A4A7B68013B53600F21E7
:102CB0004FF0FF30FFF790FF054B00229A60044B66
:102CC00007221A60002318460837BD4680BD00BFA2
:102CD00010E000E080B582B000AF78607868FFF760
:102CE0002DFF00BF0837BD4680BD80B586B000AF60
:102CF0000346B9607A60FB7300237B61FFF742FFF4
:102D000078617A68B9687869FFF790FF024697F9A9
:102D10000F3011461846FFF75FFF00BF1837BD465A
:102D200080BD80B582B000AF0346FB7197F90730D4
:102D30001846FFF735FF00BF0837BD4680BD80B598
:102D400082B000AF78607868FFF7A2FF03461846AC
:102D50000837BD4680BD80B485B000AF78600023E1
:102D6000FB737B6893F82130DBB2022B08D07B68C1
:102D700004229A637B68002283F82020012320E04C
:102D80007B681B681A687B681B6822F00E021A6059
:102D90007B681B681A687B681B6822F001021A6056
:102DA0007B681A6C7B68DB6B012101FA02F25A60C6
:102DB0007B68012283F821207B68002283F8202091
:102DC000FB7B18461437BD4680BC704780B584B085
:102DD00000AF78600023FB737B6893F82130DBB28F
:102DE000022B05D07B6804229A630123FB7351E018
:102DF0007B681B681A687B681B6822F00E021A60E9
:102E00007B681B681A687B681B6822F001021A60E5
:102E10007B681B68224A934229D07B681B68214A41
:102E2000934222D07B681B681F4A93421AD07B686A
:102E30001B681E4A934212D07B681B681C4A93424F
:102E40000AD07B681B681B4A934202D14FF480135F
:102E50000EE04FF080730BE04FF4803308E04FF446
:102E6000805305E04FF4807302E0102300E001235B
:102E7000114A53607B68012283F821207B6800227D
:102E800083F820207B685B6B002B03D07B685B6B37
:102E900078689847FB7B18461037BD4680BD00BF59
:102EA000080002401C000240300002404400024082
:102EB000580002406C0002400000024080B48BB019
:102EC00000AF7860396000237B6200233B6269E1D8
:102ED00001227B6A02FA03F3FB613B681B68FA6913
:102EE0001340BB61BA69FB699A4240F058813B6864
:102EF0005B689A4A93425ED0984A934275D8984A42
:102F0000934258D0964A93426FD8964A934252D0F1
:102F1000944A934269D8944A93424CD0924A93423D
:102F200063D8924A934246D0904A93425DD8122B7E
:102F30002AD8122B59D801A252F823F0B72F000833
:102F4000912F0008A32F0008E52F0008EB2F0008A1
:102F5000EB2F0008EB2F0008EB2F0008EB2F0008E9
:102F6000EB2F0008EB2F0008EB2F0008EB2F0008D9
:102F7000EB2F0008EB2F0008EB2F0008EB2F0008C9
:102F8000992F0008AD2F0008794A934213D02CE006
:102F90003B68DB683B6229E03B68DB6804333B62EB
:102FA00024E03B68DB6808333B621FE03B68DB687A
:102FB0000C333B621AE03B689B68002B02D1042370
:102FC0003B6213E03B689B68012B05D108233B6201
:102FD0007B68FA691A6109E008233B627B68FA6939
:102FE0005A6103E000233B6200E000BFBB69FF2B96
:102FF00001D87B6801E07B6804337B61BB69FF2BF0
:1030000002D87B6A9B0002E07B6A083B9B003B6125
:103010007B691A680F213B6901FA03F3DB431A400D
:10302000396A3B6901FA03F31A437B691A603B680A
:103030005B6803F08053002B00F0B1804D4B9B691F
:103040004C4A43F0010393614A4B9B6903F001032F
:10305000BB60BB68484A7B6A9B08023352F8233046
:10306000FB607B6A03F003039B000F2202FA03F369
:10307000DB43FA681340FB607B68404A934213D0FD
:103080007B683F4A93420DD07B683E4A934207D00B
:103090007B683D4A934201D1032306E0042304E008
:1030A000022302E0012300E000237A6A02F0030217
:1030B00092009340FA681343FB602F497B6A9B0898
:1030C0000233FA6841F823203B685B6803F48013FD
:1030D000002B06D02D4B9A682C49BB6913438B609B
:1030E00006E02A4B9A68BB69DB43284913408B6092
:1030F0003B685B6803F40013002B06D0234BDA68AF
:103100002249BB691343CB6006E0204BDA68BB69F8
:10311000DB431E491340CB603B685B6803F400331C
:10312000002B06D0194B5A681849BB6913434B60F2
:1031300006E0164B5A68BB69DB43144913404B60E9
:103140003B685B6803F48033002B21D00F4B1A6877
:103150000E49BB6913430B6021E000BF0000321031
:103160000000311000002210000021100000121099
:103170000000111000100240000001400008014052
:10318000000C014000100140001401400004014007
:103190000B4B1A68BB69DB43094913400B607B6A20
:1031A00001337B623B681A687B6A22FA03F3002BC7
:1031B0007FF48EAE00BF00BF2C37BD4680BC704789
:1031C0000004014080B485B000AF78600B467B807E
:1031D0007B689A687B881340002B02D00123FB7325
:1031E00001E00023FB73FB7B18461437BD4680BC0F
:1031F000704780B483B000AF78600B467B80134685
:103200007B707B78002B03D07A887B681A6103E09F
:103210007B881A047B681A6100BF0C37BD4680BCEE
:103220007047000080B586B000AF78607B68002BE7
:1032300001D1012372E27B681B6803F00103002BBC
:1032400000F08780924B5B6803F00C03042B0CD0DA
:103250008F4B5B6803F00C03082B12D18C4B5B681F
:1032600003F48033B3F5803F0BD1894B1B6803F423
:103270000033002B6CD07B685B68002B68D1012386
:103280004CE27B685B68B3F5803F06D1804B1B68DE
:103290007F4A43F4803313602EE07B685B68002B29
:1032A0000CD17B4B1B687A4A23F480331360784B34
:1032B0001B68774A23F4802313601DE07B685B68FA
:1032C000B3F5A02F0CD1724B1B68714A43F48023D5
:1032D00013606F4B1B686E4A43F4803313600BE03E
:1032E0006B4B1B686A4A23F480331360684B1B687E
:1032F000674A23F4802313607B685B68002B13D03C
:10330000FEF714FF386108E0FEF710FF02463B6944
:10331000D31A642B01D9032300E25D4B1B6803F42D
:103320000033002BF0D014E0FEF700FF386108E016
:10333000FEF7FCFE02463B69D31A642B01D9032336
:10334000ECE1534B1B6803F40033002BF0D100E099
:1033500000BF7B681B6803F00203002B63D04C4B5B
:103360005B6803F00C03002B0BD0494B5B6803F048
:103370000C03082B1CD1464B5B6803F48033002BF5
:1033800016D1434B1B6803F00203002B05D07B686A
:103390001B69012B01D00123C0E13D4B1B6823F0C9
:1033A000F8027B685B69DB00394913430B603AE044
:1033B0007B681B69002B20D0364B01221A60FEF778
:1033C000B5FE386108E0FEF7B1FE02463B69D31A4C
:1033D000022B01D90323A1E12D4B1B6803F002034B
:1033E000002BF0D02A4B1B6823F0F8027B685B6946
:1033F000DB00274913430B6015E0264B00221A60BF
:10340000FEF794FE386108E0FEF790FE02463B6945
:10341000D31A022B01D9032380E11D4B1B6803F053
:103420000203002BF0D17B681B6803F00803002B1C
:103430003AD07B689B69002B19D0174B01221A6088
:10344000FEF774FE386108E0FEF770FE02463B6945
:10345000D31A022B01D9032360E10D4B5B6A03F001
:103460000203002BF0D0012000F0CEFA1CE00A4B42
:1034700000221A60FEF75AFE38610FE0FEF756FE92
:1034800002463B69D31A022B08D9032346E100BF49
:10349000001002400000424280044242924B5B6AAC
:1034A00003F00203002BE9D17B681B6803F00403DF
:1034B000002B00F0A6800023FB758B4BDB6903F02B
:1034C0008053002B0DD1884BDB69874A43F0805332
:1034D000D361854BDB6903F08053BB60BB6801237C
:1034E000FB75824B1B6803F48073002B18D17F4B54
:1034F0001B687E4A43F480731360FEF717FE386141
:1035000008E0FEF713FE02463B69D31A642B01D98B
:10351000032303E1754B1B6803F48073002BF0D089
:103520007B68DB68012B06D16F4B1B6A6E4A43F048
:10353000010313622DE07B68DB68002B0CD16A4B22
:103540001B6A694A23F001031362674B1B6A664AD0
:1035500023F0040313621CE07B68DB68052B0CD1AD
:10356000614B1B6A604A43F0040313625E4B1B6AA3
:103570005D4A43F0010313620BE05B4B1B6A5A4A3E
:1035800023F001031362584B1B6A574A23F00403CC
:1035900013627B68DB68002B15D0FEF7C7FD38612E
:1035A0000AE0FEF7C3FD02463B69D31A41F28832B6
:1035B000934201D90323B1E04B4B1B6A03F0020392
:1035C000002BEED014E0FEF7B1FD38610AE0FEF703
:1035D000ADFD02463B69D31A41F28832934201D9CC
:1035E00003239BE0404B1B6A03F00203002BEED148
:1035F000FB7D012B05D13C4BDB693B4A23F080531B
:10360000D3617B68DB69002B00F08780364B5B68F9
:1036100003F00C03082B61D07B68DB69022B46D1D9
:10362000334B00221A60FEF781FD386108E0FEF797
:103630007DFD02463B69D31A022B01D903236DE0BD
:10364000294B1B6803F00073002BF0D17B681B6AC9
:10365000B3F5803F08D1244B5B6823F400327B68CC
:103660009B68214913434B601F4B5B6823F4741222
:103670007B68196A7B685B6A0B431B4913434B6089
:103680001B4B01221A60FEF751FD386108E0FEF77E
:103690004DFD02463B69D31A022B01D903233DE0BD
:1036A000114B1B6803F00073002BF0D035E0104B7A
:1036B00000221A60FEF73AFD386108E0FEF736FD99
:1036C00002463B69D31A022B01D9032326E0064B9D
:1036D0001B6803F00073002BF0D11EE07B68DB69F0
:1036E000012B07D1012319E00010024000700040B7
:1036F000600042420B4B5B68FB60FB6803F4803266
:103700007B681B6A9A4206D1FB6803F470127B68DF
:103710005B6A9A4201D0012300E000231846183763
:10372000BD4680BD0010024080B584B000AF786017
:1037300039607B68002B01D10123D0E06A4B1B6804
:1037400003F007033A689A4210D9674B1B6823F0CD
:10375000070265493B6813430B60634B1B6803F02A
:1037600007033A689A4201D00123B8E07B681B68DE
:1037700003F00203002B20D07B681B6803F00403D6
:10378000002B05D0594B5B68584A43F4E063536003
:103790007B681B6803F00803002B05D0534B5B6864
:1037A000524A43F460535360504B5B6823F0F0027D
:1037B0007B689B684D4913434B607B681B6803F033
:1037C0000103002B40D07B685B68012B07D1474B7E
:1037D0001B6803F40033002B15D101237FE07B68C5
:1037E0005B68022B07D1414B1B6803F00073002B71
:1037F00009D1012373E03D4B1B6803F00203002B4A
:1038000001D101236BE0394B5B6823F003027B6835
:103810005B68364913434B60FEF788FCF8600AE0AA
:10382000FEF784FC0246FB68D31A41F288329342C9
:1038300001D9032353E02D4B5B6803F00C027B6836
:103840005B689B009A42EBD1274B1B6803F0070390
:103850003A689A4210D2244B1B6823F0070222498F
:103860003B6813430B60204B1B6803F007033A6867
:103870009A4201D0012332E07B681B6803F0040305
:10388000002B08D0194B5B6823F4E0627B68DB688F
:10389000164913434B607B681B6803F00803002B39
:1038A00009D0124B5B6823F460527B681B69DB0014
:1038B0000E4913434B6000F021F802460B4B5B6846
:1038C0001B0903F00F030A49CB5C22FA03F3094AF0
:1038D0001360094B1B681846FEF7E6FB00231846E9
:1038E0001037BD4680BD00BF0020024000100240DE
:1038F00060950008000000200400002080B487B01C
:1039000000AF0023FB600023BB6000237B6100232A
:103910007B6000233B611E4B5B68FB60FB6803F030
:103920000C03042B02D0082B03D027E0194B3B617A
:1039300027E0FB689B0C03F00F03174AD35C7B6006
:10394000FB6803F48033002B10D0114B5B685B0CD9
:1039500003F00103114AD35CBB607B680D4A03FB93
:1039600002F2BB68B2FBF3F37B6104E07B680C4AB4
:1039700002FB03F37B617B693B6102E0054B3B612A
:1039800000BF3B6918461C37BD4680BC704700BF6E
:103990000010024000127A0078950008889500080F
:1039A00000093D0080B400AF024B1B681846BD46BD
:1039B00080BC70470000002080B500AFFFF7F2FF29
:1039C0000246054B5B681B0A03F007030349CB5C07
:1039D00022FA03F3184680BD0010024070950008DB
:1039E00080B500AFFFF7DEFF0246054B5B68DB0AE0
:1039F00003F007030349CB5C22FA03F3184680BDAA
:103A0000001002407095000880B485B000AF786067
:103A10000A4B1B680A4AA2FB03235B0A7A6802FB73
:103A200003F3FB6000BFFB685A1EFA60002BF9D15C
:103A300000BF00BF1437BD4680BC704700000020A7
:103A4000D34D621080B586B000AF786000233B6133
:103A50000023FB607B681B6803F00103002B7DD013
:103A60000023FB754F4BDB6903F08053002B0DD116
:103A70004C4BDB694B4A43F08053D361494BDB69C4
:103A800003F08053BB60BB680123FB75464B1B688A
:103A900003F48073002B18D1434B1B68424A43F454
:103AA00080731360FEF742FB386108E0FEF73EFBCF
:103AB00002463B69D31A642B01D903236DE03A4BCC
:103AC0001B6803F48073002BF0D0364B1B6A03F4A1
:103AD0004073FB60FB68002B2ED07B685B6803F4AF
:103AE0004073FA689A4227D02E4B1B6A23F4407326
:103AF000FB602E4B01221A602C4B00221A60294ACF
:103B0000FB681362FB6803F00103002B14D0FEF77F
:103B10000DFB38610AE0FEF709FB02463B69D31A48
:103B200041F28832934201D9032336E01D4B1B6AD0
:103B300003F00203002BEED01A4B1B6A23F44072F1
:103B40007B685B68174913430B62FB7D012B05D132
:103B5000144BDB69134A23F08053D3617B681B68E5
:103B600003F00203002B08D00E4B5B6823F44042A5
:103B70007B689B680B4913434B607B681B6803F0B1
:103B80001003002B08D0074B5B6823F480027B688E
:103B9000DB68044913434B60002318461837BD46C1
:103BA00080BD00BF0010024000700040400442424F
:103BB00080B588B000AF786000237B610023FB6193
:103BC00000233B610023FB600023BB617B68102B5B
:103BD0000AD07B68102B00F28A807B68012B45D0CD
:103BE0007B68022B75D082E0464B5B68FB60454BDF
:103BF0001B6803F08073002B7BD0FB689B0C03F0E9
:103C00000F03414AD35C3B61FB6803F48033002B14
:103C100015D03C4B5B685B0C03F001033B4AD35C63
:103C20007B61FB6803F48033002B0DD0384A7B693D
:103C3000B2FBF3F23B6902FB03F3FB6104E03B6977
:103C4000344A02FB03F3FB612E4B5B6803F48003F1
:103C5000B3F5800F02D1FB69BB614AE0FB695B00F1
:103C60002D4AA2FB03235B08BB6142E0254B1B6A84
:103C7000FB60FB6803F44073B3F5807F08D1FB68F9
:103C800003F00203002B03D04FF40043BB611FE09D
:103C9000FB6803F44073B3F5007F09D1194B5B6AED
:103CA00003F00203002B03D049F64043BB610FE051
:103CB000FB6803F44073B3F5407F1CD1114B1B68C4
:103CC00003F40033002B16D04FF22443BB6112E003
:103CD00011E0FFF785FE02460A4B5B689B0B03F081
:103CE000030301335B00B2FBF3F3BB6104E000BFED
:103CF00002E000BF00E000BFBB6918462037BD46A8
:103D000080BD00BF001002408C9500089C95000803
:103D100000127A0000093D00ABAAAAAA80B582B0C1
:103D200000AF78607B68002B01D1012341E07B6804
:103D300093F83D30DBB2002B06D17B68002283F87C
:103D40003C207868FEF7D2F87B68022283F83D2099
:103D50007B681A687B6804331946104600F008FA3D
:103D60007B68012283F846207B68012283F83E208D
:103D70007B68012283F83F207B68012283F8402082
:103D80007B68012283F841207B68012283F842206E
:103D90007B68012283F843207B68012283F844205A
:103DA0007B68012283F845207B68012283F83D204F
:103DB000002318460837BD4680BD80B584B000AFEB
:103DC00078607B681B68DB68FB607B681B681B692D
:103DD000BB60BB6803F00203002B20D0FB6803F03C
:103DE0000203002B1BD07B681B686FF002021A6174
:103DF0007B6801221A777B681B689B6903F00303C9
:103E0000002B03D0786800F098F905E0786800F09E
:103E10008BF9786800F09AF97B6800221A77BB6802
:103E200003F00403002B20D0FB6803F00403002BF5
:103E30001BD07B681B686FF004021A617B6802224A
:103E40001A777B681B689B6903F44073002B03D0CF
:103E5000786800F072F905E0786800F065F9786834
:103E600000F074F97B6800221A77BB6803F008033E
:103E7000002B20D0FB6803F00803002B1BD07B68CD
:103E80001B686FF008021A617B6804221A777B684E
:103E90001B68DB6903F00303002B03D0786800F094
:103EA0004CF905E0786800F03FF9786800F04EF9C9
:103EB0007B6800221A77BB6803F01003002B20D028
:103EC000FB6803F01003002B1BD07B681B686FF0AE
:103ED00010021A617B6808221A777B681B68DB690D
:103EE00003F44073002B03D0786800F026F905E056
:103EF000786800F019F9786800F028F97B680022EA
:103F00001A77BB6803F00103002B0CD0FB6803F0A9
:103F10000103002B07D07B681B686FF001021A6158
:103F20007868FDF74CFEBB6803F08003002B0CD0D3
:103F3000FB6803F08003002B07D07B681B686FF0E1
:103F400080021A61786800F07EFABB6803F04003D3
:103F5000002B0CD0FB6803F04003002B07D07B68DC
:103F60001B686FF040021A61786800F0F8F8BB68CF
:103F700003F02003002B0CD0FB6803F02003002B80
:103F800007D07B681B686FF020021A61786800F028
:103F900051FA00BF1037BD4680BD80B584B000AF78
:103FA000786039600023FB737B6893F83C30012B09
:103FB00001D10223B4E07B68012283F83C207B68B6
:103FC000022283F83D207B681B689B68BB60BB684E
:103FD00023F07703BB60BB6823F47F43BB607B683F
:103FE0001B68BA689A603B681B68B3F5005F3ED0F7
:103FF000B3F5005F00F28780B3F5805F00F0868044
:10400000B3F5805F7FD8702B1AD0702B7BD8602BD4
:1040100050D0602B77D8502B3CD0502B73D8402BEE
:1040200058D0402B6FD8302B64D0302B6BD8202B3E
:1040300060D0202B67D8002B5CD0102B5AD062E0C8
:104040007B6818683B6899683B685A683B68DB681E
:1040500000F073F97B681B689B68BB60BB6843F02A
:104060007703BB607B681B68BA689A604FE07B6827
:1040700018683B6899683B685A683B68DB6800F0E1
:104080005CF97B681B689A687B681B6842F4804215
:104090009A603CE07B6818683B6859683B68DB685D
:1040A0001A4600F0D3F87B681B685021184600F0D0
:1040B0002AF92CE07B6818683B6859683B68DB6824
:1040C0001A4600F0F1F87B681B686021184600F082
:1040D0001AF91CE07B6818683B6859683B68DB6824
:1040E0001A4600F0B3F87B681B684021184600F0C0
:1040F0000AF90CE07B681A683B681B681946104691
:1041000000F001F903E00123FB7300E000BF7B68CE
:10411000012283F83D207B68002283F83C20FB7B52
:1041200018461037BD4680BD80B483B000AF7860BC
:1041300000BF0C37BD4680BC704780B483B000AF71
:10414000786000BF0C37BD4680BC704780B483B038
:1041500000AF786000BF0C37BD4680BC704780B4AC
:1041600083B000AF786000BF0C37BD4680BC70479D
:1041700080B485B000AF786039607B681B68FB60F5
:104180007B682F4A93420BD07B68B3F1804F07D0F6
:104190007B682C4A934203D07B682B4A934208D118
:1041A000FB6823F07003FB603B685B68FA681343AD
:1041B000FB607B68224A93420BD07B68B3F1804F4F
:1041C00007D07B681F4A934203D07B681E4A934204
:1041D00008D1FB6823F44073FB603B68DB68FA6836
:1041E0001343FB60FB6823F080023B685B69134369
:1041F000FB607B68FA681A603B689A687B68DA62E1
:104200003B681A687B689A627B680D4A934203D1C7
:104210003B681A697B681A637B6801225A617B6874
:104220001B6903F00103002B05D07B681B6923F099
:1042300001027B681A6100BF1437BD4680BC70471D
:10424000002C0140000400400008004080B487B00A
:1042500000AFF860B9607A60FB681B6A7B61FB683D
:104260001B6A23F00102FB681A62FB689B693B61D1
:104270003B6923F0F0033B617B681B013A69134300
:104280003B617B6923F00A037B617A69BB68134356
:104290007B61FB683A699A61FB687A691A6200BFC0
:1042A0001C37BD4680BC704780B487B000AFF86053
:1042B000B9607A60FB681B6A7B61FB681B6A23F04C
:1042C0001002FB681A62FB689B693B613B6923F43F
:1042D00070433B617B681B033A6913433B617B6915
:1042E00023F0A0037B61BB681B017A6913437B61E8
:1042F000FB683A699A61FB687A691A6200BF1C37E9
:10430000BD4680BC704780B485B000AF786039602E
:104310007B689B68FB60FB6823F07003FB603A6876
:10432000FB68134343F00703FB607B68FA689A60FD
:1043300000BF1437BD4680BC704780B487B000AF63
:10434000F860B9607A603B60FB689B687B617B6961
:1043500023F47F437B613B681A027B681A43BB6886
:1043600013437A6913437B61FB687A699A6000BFE3
:104370001C37BD4680BC704780B485B000AF786004
:1043800039607B6893F83C30012B01D1022346E071
:104390007B68012283F83C207B68022283F83D2061
:1043A0007B681B685B68FB607B681B689B68BB6005
:1043B000FB6823F07003FB603B681B68FA681343DB
:1043C000FB607B681B68FA685A607B681B68164A4A
:1043D00093420ED07B681B68B3F1804F09D07B6895
:1043E0001B68124A934204D07B681B68104A9342B0
:1043F0000CD1BB6823F08003BB603B685B68BA6884
:104400001343BB607B681B68BA689A607B680122B3
:1044100083F83D207B68002283F83C200023184667
:104420001437BD4680BC7047002C0140000400409A
:104430000008004080B483B000AF786000BF0C3744
:10444000BD4680BC704780B483B000AF786000BFC9
:104450000C37BD4680BC704780B582B000AF786035
:104460007B68002B01D1012342E07B6893F8413047
:10447000DBB2002B06D17B68002283F840207868ED
:10448000FDF782FD7B68242283F841207B681B684E
:10449000DA687B681B6822F40052DA60786800F002
:1044A00059FE7B681B681A697B681B6822F490427E
:1044B0001A617B681B685A697B681B6822F02A02B4
:1044C0005A617B681B68DA687B681B6842F400529B
:1044D000DA607B6800225A647B68202283F84120DE
:1044E0007B68202283F842207B6800225A630023E5
:1044F00018460837BD4680BD80B58AB002AFF86067
:10450000B9603B601346FB8000237B61FB6893F836
:104510004130DBB2202B75D1BB68002B02D0FB8869
:10452000002B01D101236EE0FB6800225A64FB6876
:10453000212283F84120FDF7F9FD7861FB68FA88B4
:104540009A84FB68FA88DA84FB689B68B3F5805F1D
:1045500008D1FB681B69002B04D10023FB61BB68F9
:10456000BB6103E0BB68FB610023BB612EE03B68DD
:1045700000937B6900228021F86800F0BDFB0346B0
:10458000002B05D0FB68202283F8412003233AE06A
:10459000FB69002B0BD1BB691B881A46FB681B68A3
:1045A000C2F308025A60BB690233BB6107E0FB69D2
:1045B0001A78FB681B685A60FB690133FB61FB6872
:1045C000DB8C9BB2013B9AB2FB68DA84FB68DB8C24
:1045D0009BB2002BCBD13B6800937B69002240212A
:1045E000F86800F089FB0346002B05D0FB68202209
:1045F00083F84120032306E0FB68202283F8412052
:10460000002300E0022318462037BD4680BD80B558
:104610008AB002AFF860B9603B601346FB800023AC
:104620007B61FB6893F84230DBB2202B40F0818045
:10463000BB68002B02D0FB88002B01D1012379E05D
:10464000FB6800225A64FB68222283F84220FB6840
:1046500000221A63FDF76AFD7861FB68FA889A8583
:10466000FB68FA88DA85FB689B68B3F5805F08D140
:10467000FB681B69002B04D10023FB61BB68BB6195
:1046800003E0BB68FB610023BB6147E03B6800932C
:104690007B6900222021F86800F02EFB0346002BE6
:1046A00005D0FB68202283F84220032342E0FB6907
:1046B000002B0CD1FB681B685B689BB2C3F308033B
:1046C0009AB2BB691A80BB690233BB611FE0FB6809
:1046D0009B68B3F5805F07D0FB689B68002B0AD10D
:1046E000FB681B69002B06D1FB681B685B68DAB2AC
:1046F000FB691A7008E0FB681B685B68DBB203F0BB
:104700007F03DAB2FB691A70FB690133FB61FB6856
:10471000DB8D9BB2013B9AB2FB68DA85FB68DB8DCF
:104720009BB2002BB2D1FB68202283F842200023E9
:1047300000E0022318462037BD4680BD80B584B016
:1047400000AFF860B9601346FB80FB6893F8423015
:10475000DBB2202B12D1BB68002B02D0FB88002BD0
:1047600001D101230BE0FB6800221A63FB881A4683
:10477000B968F86800F019FB034600E00223184608
:104780001037BD4680BD000080B5BAB000AF78607C
:104790007B681B681B68C7F8E4307B681B68DB68B4
:1047A000C7F8E0307B681B685B69C7F8DC30002322
:1047B000C7F8D8300023C7F8D430D7F8E43003F076
:1047C0000F03C7F8D830D7F8D830002B0FD1D7F85F
:1047D000E43003F02003002B09D0D7F8E03003F0D9
:1047E0002003002B03D0786800F0F5FB5BE2D7F8DC
:1047F000D830002B00F0DE80D7F8DC3003F0010366
:10480000002B06D1D7F8E03003F49073002B00F0B2
:10481000D180D7F8E43003F00103002B0BD0D7F898
:10482000E03003F48073002B05D07B685B6C43F0B1
:1048300001027B685A64D7F8E43003F00403002BCC
:104840000BD0D7F8DC3003F00103002B05D07B68D8
:104850005B6C43F002027B685A64D7F8E43003F0E3
:104860000203002B0BD0D7F8DC3003F00103002B40
:1048700005D07B685B6C43F004027B685A64D7F810
:10488000E43003F00803002B11D0D7F8E03003F038
:104890002003002B05D1D7F8DC3003F00103002BF7
:1048A00005D07B685B6C43F008027B685A647B68C8
:1048B0005B6C002B00F0F281D7F8E43003F02003AA
:1048C000002B08D0D7F8E03003F02003002B02D0F3
:1048D000786800F080FB7B681B685B6903F040032D
:1048E000002B14BF01230023DBB2C7F8D4307B6850
:1048F0005B6C03F00803002B03D1D7F8D430002BF6
:104900004FD0786800F08AFA7B681B685B6903F017
:104910004003002B41D07B681B681433C7F89C30E0
:10492000D7F89C3053E8003FC7F89830D7F8983054
:1049300023F04003C7F8D0307B681B681433D7F8E6
:10494000D020C7F8A820C7F8A430D7F8A410D7F80B
:10495000A82041E80023C7F8A030D7F8A030002BEA
:10496000D9D17B68DB6B002B13D07B68DB6B7E4A75
:104970005A637B68DB6B1846FEF728FA0346002B68
:1049800016D07B68DB6B5B6B7A68D26B10469847FE
:104990000EE0786800F09CF90AE0786800F098F979
:1049A00006E0786800F094F97B6800225A6475E1AB
:1049B00000BF73E17B681B6B012B40F04F81D7F880
:1049C000E43003F01003002B00F04881D7F8E0300A
:1049D00003F01003002B00F041810023BB607B68D3
:1049E0001B681B68BB607B681B685B68BB60BB683F
:1049F0007B681B685B6903F04003002B00F0B68006
:104A00007B68DB6B1B685B68A7F8BE30B7F8BE300D
:104A1000002B00F045817B689B8DB7F8BE209A4241
:104A200080F03E817B68B7F8BE20DA857B68DB6B5F
:104A30009B69202B00F088807B681B680C33C7F8CB
:104A40008830D7F8883053E8003FC7F88430D7F86B
:104A5000843023F48073C7F8B8307B681B680C334C
:104A6000D7F8B820C7F89420C7F89030D7F890103E
:104A7000D7F8942041E80023C7F88C30D7F88C3061
:104A8000002BD9D17B681B6814337B677B6F53E89D
:104A9000003F3B673B6F23F00103C7F8B4307B68EE
:104AA0001B681433D7F8B420C7F88020FB67F96F70
:104AB000D7F8802041E80023BB67BB6F002BE1D112
:104AC0007B681B6814333B663B6E53E8003FFB6515
:104AD000FB6D23F04003C7F8B0307B681B681433CC
:104AE000D7F8B020FA66BB66B96EFA6E41E80023CB
:104AF0007B667B6E002BE3D17B68202283F842200B
:104B00007B6800221A637B681B680C33FB64FB6CB8
:104B100053E8003FBB64BB6C23F01003C7F8AC3014
:104B20007B681B680C33D7F8AC20BA657B65796D60
:104B3000BA6D41E800233B653B6D002BE3D17B68F8
:104B4000DB6B1846FEF707F97B6802225A637B6825
:104B50009A8D7B68DB8D9BB2D31A9BB2194678681D
:104B600000F0BFF89CE000BFE14E00087B689A8D22
:104B70007B68DB8D9BB2D31AA7F8CE307B68DB8DC8
:104B80009BB2002B00F08E80B7F8CE30002B00F0E7
:104B900089807B681B680C33BB63BB6B53E8003FA9
:104BA0007B637B6B23F49073C7F8C8307B681B680A
:104BB0000C33D7F8C8207A643B64396C7A6C41E8CE
:104BC0000023FB63FB6B002BE3D17B681B68143372
:104BD0007B627B6A53E8003F3B623B6A23F0010340
:104BE000C7F8C4307B681B681433D7F8C4203A6315
:104BF000FB62F96A3A6B41E80023BB62BB6A002B97
:104C0000E3D17B68202283F842207B6800221A636C
:104C10007B681B680C333B613B6953E8003FFB60DA
:104C2000FB6823F01003C7F8C0307B681B680C33A7
:104C3000D7F8C020FA61BB61B969FA6941E800237D
:104C40007B617B69002BE3D17B6802225A63B7F852
:104C5000CE301946786800F044F823E0D7F8E43005
:104C600003F08003002B09D0D7F8E03003F0800375
:104C7000002B03D0786800F047F914E0D7F8E4304F
:104C800003F04003002B0ED0D7F8E03003F04003D0
:104C9000002B08D0786800F086F904E000BF02E03D
:104CA00000BF00E000BFE837BD4680BD80B483B0E0
:104CB00000AF786000BF0C37BD4680BC704780B441
:104CC00083B000AF786000BF0C37BD4680BC704732
:104CD00080B483B000AF786000BF0C37BD4680BCA5
:104CE000704780B483B000AF78600B467B8000BF14
:104CF0000C37BD4680BC704780B586B000AFF86009
:104D0000B9603B601346FB713BE03B6AB3F1FF3F88
:104D100037D0FDF70BFA02463B68D31A3A6A9A423B
:104D200002D33B6A002B01D103233AE0FB681B68E6
:104D3000DB6803F00403002B23D0BB68802B20D05A
:104D4000BB68402B1DD0FB681B681B6803F0080381
:104D5000082B16D100237B61FB681B681B687B61F5
:104D6000FB681B685B687B617B69F86800F056F83C
:104D7000FB6808225A64FB68002283F84020012364
:104D80000FE0FB681B681A68BB681340BA689A4258
:104D90000CBF01230023DBB21A46FB799A42B4D040
:104DA000002318461837BD4680BD80B485B000AFDB
:104DB000F860B9601346FB80FB68BA689A62FB68CA
:104DC000FA889A85FB68FA88DA85FB6800225A64BB
:104DD000FB68222283F84220FB681B69002B07D066
:104DE000FB681B68DA68FB681B6842F48072DA6053
:104DF000FB681B685A69FB681B6842F001025A6134
:104E0000FB681B68DA68FB681B6842F02002DA6006
:104E1000002318461437BD4680BC704780B495B057
:104E200000AF78607B681B680C337B637B6B53E857
:104E3000003F3B633B6B23F49073FB647B681B6810
:104E40000C33FA6C3A64FB63F96B3A6C41E800236B
:104E5000BB63BB6B002BE5D17B681B6814333B62E3
:104E60003B6A53E8003FFB61FB6923F00103BB642D
:104E70007B681B681433BA6CFA62BB62B96AFA6A5F
:104E800041E800237B627B6A002BE5D17B681B6BCA
:104E9000012B19D17B681B680C33FB60FB6853E85E
:104EA000003FBB60BB6823F010037B647B681B681A
:104EB0000C337A6CBA617B617969BA6941E8002385
:104EC0003B613B69002BE5D17B68202283F84220BF
:104ED0007B6800221A6300BF5437BD4680BC704710
:104EE00080B584B000AF78607B685B6AFB60FB686C
:104EF0000022DA85FB680022DA84F868FFF7E8FE12
:104F000000BF1037BD4680BD80B485B000AF78606B
:104F10007B6893F84130DBB2212B3ED17B689B68E4
:104F2000B3F5805F14D17B681B69002B10D17B68BF
:104F30001B6AFB60FB681B881A467B681B68C2F310
:104F400008025A607B681B6A9A1C7B681A6208E038
:104F50007B681B6A591C7A6811621A787B681B6827
:104F60005A607B68DB8C9BB2013B9BB27A68194626
:104F7000D184002B0FD17B681B68DA687B681B68C3
:104F800022F08002DA607B681B68DA687B681B6845
:104F900042F04002DA60002300E002231846143792
:104FA000BD4680BC704780B582B000AF78607B683A
:104FB0001B68DA687B681B6822F04002DA607B6855
:104FC000202283F841207868FFF770FE00231846FE
:104FD0000837BD4680BD80B58CB000AF78607B6877
:104FE00093F84230DBB2222B40F0AE807B689B68A6
:104FF000B3F5805F17D17B681B69002B13D10023A9
:10500000FB627B689B6ABB627B681B685B689BB2C8
:10501000C3F308039AB2BB6A1A807B689B6A9A1C26
:105020007B689A6226E07B689B6AFB620023BB6216
:105030007B689B68B3F5805F07D07B689B68002B1B
:105040000AD17B681B69002B06D17B681B685B68F3
:10505000DAB2FB6A1A7008E07B681B685B68DBB237
:1050600003F07F03DAB2FB6A1A707B689B6A5A1CF2
:105070007B689A627B68DB8D9BB2013B9BB27A684E
:105080001946D185002B5DD17B681B68DA687B6887
:105090001B6822F02002DA607B681B68DA687B6894
:1050A0001B6822F48072DA607B681B685A697B682F
:1050B0001B6822F001025A617B68202283F842209B
:1050C0007B6800225A637B681B6B012B35D17B68A0
:1050D00000221A637B681B680C337B617B6953E891
:1050E000003F3B613B6923F010037B627B681B68D8
:1050F0000C337A6A3A62FB61F9693A6A41E8002343
:10510000BB61BB69002BE5D17B681B681B6803F0A2
:105110001003102B0AD10023FB607B681B681B68FF
:10512000FB607B681B685B68FB60FB687B689B8D32
:1051300019467868FFF7D5FD02E07868FFF7BFFDF4
:10514000002302E0002300E0022318463037BD466A
:1051500080BD000080B584B000AF78607B681B68BC
:105160001B6923F440517B68DA687B681B680A433B
:105170001A617B689A687B681B691A437B685B6964
:105180001343BB607B681B68DB6823F4B05323F0D8
:105190000C037A681268B9680B43D3607B681B689C
:1051A0005B6923F440717B689A697B681B680A43DA
:1051B0005A617B681B682C4A934203D1FEF710FCAE
:1051C000F86002E0FEF7F8FBF860FA6813469B000F
:1051D00013449A001A447B685B689B00B2FBF3F3AC
:1051E000224AA2FB03235B091901FA6813469B00BC
:1051F00013449A001A447B685B689B00B2FBF3F28D
:105200001A4BA3FB02035B09642000FB03F3D31AD0
:105210001B013233154AA2FB03235B0903F0F003A1
:105220001944FA6813469B0013449A001A447B6899
:105230005B689B00B2FBF3F20C4BA3FB02035B0920
:10524000642000FB03F3D31A1B013233074AA2FB8D
:1052500003235B0903F00F027B681B680A449A6012
:1052600000BF1037BD4680BD003801401F85EB519F
:1052700080B582B000AF03460A46FB711346BB718E
:10528000BB7903F00103002B14D0FB795A4A342177
:1052900001FB03F3134404331868FB79564A3421A5
:1052A00001FB03F3134408331B8801221946FDF761
:1052B000A0FF13E0FB79504A342101FB03F31344B0
:1052C00004331868FB794C4A342101FB03F313447F
:1052D00008331B8800221946FDF78BFFBB7903F0CA
:1052E0000203002B14D0FB79434A342101FB03F362
:1052F00013440C331868FB793F4A342101FB03F354
:10530000134410331B8801221946FDF772FF13E086
:10531000FB79394A342101FB03F313440C33186839
:10532000FB79354A342101FB03F3134410331B8806
:1053300000221946FDF75DFFBB7903F00403002B43
:1053400014D0FB792C4A342101FB03F313441433AA
:105350001868FB79284A342101FB03F313441833FE
:105360001B8801221946FDF744FF13E0FB79224A0E
:10537000342101FB03F3134414331868FB791E4AEC
:10538000342101FB03F3134418331B880022194610
:10539000FDF72FFFBB7903F00803002B14D0FB7936
:1053A000154A342101FB03F313441C331868FB79BD
:1053B000114A342101FB03F3134420331B880122DB
:1053C0001946FDF716FF13E0FB790B4A342101FB68
:1053D00003F313441C331868FB79074A342101FB9B
:1053E00003F3134420331B8800221946FDF701FF05
:1053F00000BF0837BD4680BDA095000880B588B0C5
:1054000000AF03460A46FB711346BB71FB79574A4E
:10541000342101FB03F313442C331868FB79534AFE
:10542000342101FB03F3134430331B880022194657
:10543000FDF7DFFEBA79FB7911461846FFF718FF32
:10544000FB794A4A342101FB03F3134424331868DF
:10545000FB79464A342101FB03F3134428331B88AC
:1054600000221946FDF7C5FE414B9B68FB61414B8D
:105470001B68414AA2FB03239A0C13469B001A4463
:105480003C4B1B683C49A1FB03139B0C5B08D31AE4
:10549000BB61374B9B68FA69D31ABA699A42F8D84C
:1054A000FB79324A342101FB03F313442433186897
:1054B000FB792E4A342101FB03F3134428331B8864
:1054C00001221946FDF795FE294B9B687B61294B0C
:1054D0001B68294AA2FB03239A0C13469B001A441B
:1054E000244B1B682449A1FB03139B0C5B08D31AB4
:1054F0003B611F4B9B687A69D31A3A699A42F8D884
:10550000FB791A4A342101FB03F31344243318684E
:10551000FB79164A342101FB03F3134428331B881B
:1055200000221946FDF765FE114B9B68FB60114B8D
:105530001B68114AA2FB03239B0C642203FB02F2AB
:105540000C4B1B680C49A1FB03139B0C5B08D31A83
:10555000BB60074B9B68FA68D31ABA689A42F8D8BE
:1055600000BF00BF2037BD4680BD00BFA09500082A
:1055700010E000E00000002083DE1B4380B586B011
:1055800000AF0346FB71FB7900211846FFF736FF99
:10559000FB7901211846FFF731FF00237B611FE0F3
:1055A000134B9B683B61134B1B68134AA2FB0323FD
:1055B0009B0C4FF47A7203FB02F20E4B1B680E49F0
:1055C000A1FB03139B0C5B08D31AFB60084B9B6881
:1055D0003A69D31AFA689A42F8D87B6901337B6139
:1055E0007B69012BDCD900BF00BF1837BD4680BDE9
:1055F00010E000E00000002083DE1B4380B584B093
:1056000000AF0346FB710B46BB7113467B71BB7940
:10561000012B15D17B797F33FB73FB7B1B09BB739C
:10562000FB7B03F00F037B73BA7BFB7911461846B3
:10563000FFF7E4FE7A7BFB7911461846FFF7DEFEA2
:10564000BB79022B15D17B79413BFB73FB7B1B099B
:10565000BB73FB7B03F00F037B73BA7BFB791146B3
:105660001846FFF7CBFE7A7BFB7911461846FFF709
:10567000C5FE00BF1037BD4680BD000080B58EB0AE
:1056800000AF0346FB7100BFFCF750FD0346312B12
:10569000FAD9FB797C4A342101FB03F313442C3300
:1056A0001868FB79784A342101FB03F31344303343
:1056B0001B8800221946FDF79CFDFB79724A3421B4
:1056C00001FB03F3134424331868FB796E4A342139
:1056D00001FB03F3134428331B8800221946FDF70E
:1056E00088FDFB7900211846FFF7C2FD00237B638C
:1056F0001FE0664B9B683B61654B1B68654AA2FBDC
:1057000003239B0C4FF47A7203FB02F2604B1B687D
:105710006049A1FB03139B0C5B08D31AFB605B4B36
:105720009B683A69D31AFA689A42F8D87B6B0133BE
:105730007B637B6B952BDCD9FB7903211846FFF744
:105740005DFE00233B631FE0504B9B68BB61504BE9
:105750001B68504AA2FB03239B0C4FF47A7203FB95
:1057600002F24B4B1B684B49A1FB03139B0C5B08DC
:10577000D31A7B61454B9B68BA69D31A7A699A42FE
:10578000F8D83B6B01333B633B6B042BDCD9FB79D3
:1057900003211846FFF732FE0023FB621FE03B4B5C
:1057A0009B683B623A4B1B683A4AA2FB03239B0C63
:1057B0004FF47A7203FB02F2354B1B683549A1FBAB
:1057C00003139B0C5B08D31AFB61304B9B683A6A4E
:1057D000D31AFA699A42F8D8FB6A0133FB62FB6A72
:1057E000042BDCD9FB7903211846FFF707FE274B72
:1057F0009B68BB62264B1B68264AA2FB03239B0CBB
:10580000962203FB02F2224B1B682249A1FB0313E1
:105810009B0C5B08D31A7B621C4B9B68BA6AD31A39
:105820007A6A9A42F8D8FB7902211846FFF7E6FD1A
:10583000FB7902211846FFF7E1FDFB7908211846A4
:10584000FFF7DCFDFB7900211846FFF7D7FDFB7958
:105850000C211846FFF7D2FDFB7900211846FFF70F
:10586000CDFDFB7906211846FFF7C8FDFB79002125
:105870001846FFF7C3FDFB7901211846FFF7BEFD6F
:1058800000BF3837BD4680BDA095000810E000E09D
:105890000000002083DE1B4380B590B000AF0346BC
:1058A0000A46FB711346BB71BB7903F00F0387F8FF
:1058B0003F30BB7923F00F0387F83E30FB79A44AD1
:1058C000342101FB03F313442C331868FB79A04AFD
:1058D000342101FB03F3134430331B8801221946A2
:1058E000FDF787FC97F83E301B09DAB2FB791146C9
:1058F0001846FFF7BDFCFB79954A342101FB03F301
:10590000134424331868FB79914A342101FB03F3D3
:10591000134428331B8800221946FDF76AFC8D4B7F
:105920009B68BB638C4B1B688C4AA2FB03239A0CBD
:1059300013469B001A44884B1B688849A1FB03133C
:105940009B0C5B08D31A7B63824B9B68BA6BD31AA0
:105950007A6B9A42F8D8FB797D4A342101FB03F334
:10596000134424331868FB79794A342101FB03F38B
:10597000134428331B8801221946FDF73AFC754B66
:105980009B683B63744B1B68744AA2FB03239A0C0D
:1059900013469B001A44704B1B687049A1FB03130C
:1059A0009B0C5B08D31AFB626A4B9B683A6BD31A59
:1059B000FA6A9A42F8D8FB79654A342101FB03F36D
:1059C000134424331868FB79614A342101FB03F343
:1059D000134428331B8800221946FDF70AFC5D4B4F
:1059E0009B68BB625C4B1B685C4AA2FB03239B0C5D
:1059F000642203FB02F2584B1B685849A1FB0313B6
:105A00009B0C5B08D31A7B62524B9B68BA6AD31A11
:105A10007A6A9A42F8D897F83F20FB7911461846DF
:105A2000FFF726FCFB794A4A342101FB03F31344B8
:105A300024331868FB79464A342101FB03F31344ED
:105A400028331B8800221946FDF7D3FB414B9B6886
:105A50003B62414B1B68414AA2FB03239A0C13464D
:105A60009B001A443C4B1B683C49A1FB03139B0C55
:105A70005B08D31AFB61374B9B683A6AD31AFA6901
:105A80009A42F8D8FB79324A342101FB03F31344DC
:105A900024331868FB792E4A342101FB03F31344A5
:105AA00028331B8801221946FDF7A3FB294B9B686D
:105AB000BB61294B1B68294AA2FB03239A0C13469E
:105AC0009B001A44244B1B682449A1FB03139B0C25
:105AD0005B08D31A7B611F4B9B68BA69D31A7A693A
